{"abi":[{"type":"constructor","inputs":[],"stateMutability":"nonpayable"},{"type":"function","name":"STALE_THRESHOLD","inputs":[],"outputs":[{"name":"","type":"uint256","internalType":"uint256"}],"stateMutability":"view"},{"type":"function","name":"addFeed","inputs":[{"name":"market","type":"bytes32","internalType":"bytes32"},{"name":"feed","type":"address","internalType":"address"}],"outputs":[],"stateMutability":"nonpayable"},{"type":"function","name":"feeds","inputs":[{"name":"","type":"bytes32","internalType":"bytes32"}],"outputs":[{"name":"","type":"address","internalType":"address"}],"stateMutability":"view"},{"type":"function","name":"getPrice","inputs":[{"name":"market","type":"bytes32","internalType":"bytes32"}],"outputs":[{"name":"","type":"int256","internalType":"int256"}],"stateMutability":"view"},{"type":"function","name":"getPriceHistory","inputs":[{"name":"market","type":"bytes32","internalType":"bytes32"}],"outputs":[{"name":"","type":"uint256[]","internalType":"uint256[]"}],"stateMutability":"view"},{"type":"function","name":"getTWAP","inputs":[{"name":"market","type":"bytes32","internalType":"bytes32"},{"name":"periods","type":"uint8","internalType":"uint8"}],"outputs":[{"name":"","type":"uint256","internalType":"uint256"}],"stateMutability":"view"},{"type":"function","name":"hermesAgent","inputs":[],"outputs":[{"name":"","type":"address","internalType":"address"}],"stateMutability":"view"},{"type":"function","name":"isMockMode","inputs":[],"outputs":[{"name":"","type":"bool","internalType":"bool"}],"stateMutability":"view"},{"type":"function","name":"mockPrices","inputs":[{"name":"","type":"bytes32","internalType":"bytes32"}],"outputs":[{"name":"","type":"int256","internalType":"int256"}],"stateMutability":"view"},{"type":"function","name":"owner","inputs":[],"outputs":[{"name":"","type":"address","internalType":"address"}],"stateMutability":"view"},{"type":"function","name":"priceHistory","inputs":[{"name":"","type":"bytes32","internalType":"bytes32"},{"name":"","type":"uint256","internalType":"uint256"}],"outputs":[{"name":"","type":"uint256","internalType":"uint256"}],"stateMutability":"view"},{"type":"function","name":"renounceOwnership","inputs":[],"outputs":[],"stateMutability":"nonpayable"},{"type":"function","name":"setHermesAgent","inputs":[{"name":"agent","type":"address","internalType":"address"}],"outputs":[],"stateMutability":"nonpayable"},{"type":"function","name":"setMockMode","inputs":[{"name":"enabled","type":"bool","internalType":"bool"}],"outputs":[],"stateMutability":"nonpayable"},{"type":"function","name":"transferOwnership","inputs":[{"name":"newOwner","type":"address","internalType":"address"}],"outputs":[],"stateMutability":"nonpayable"},{"type":"function","name":"updateMockPrice","inputs":[{"name":"market","type":"bytes32","internalType":"bytes32"},{"name":"price","type":"int256","internalType":"int256"}],"outputs":[],"stateMutability":"nonpayable"},{"type":"event","name":"FeedAdded","inputs":[{"name":"market","type":"bytes32","indexed":true,"internalType":"bytes32"},{"name":"feed","type":"address","indexed":false,"internalType":"address"}],"anonymous":false},{"type":"event","name":"HermesAgentSet","inputs":[{"name":"agent","type":"address","indexed":false,"internalType":"address"}],"anonymous":false},{"type":"event","name":"MockModeSet","inputs":[{"name":"enabled","type":"bool","indexed":false,"internalType":"bool"}],"anonymous":false},{"type":"event","name":"MockPriceUpdated","inputs":[{"name":"market","type":"bytes32","indexed":true,"internalType":"bytes32"},{"name":"price","type":"int256","indexed":false,"internalType":"int256"}],"anonymous":false},{"type":"event","name":"OwnershipTransferred","inputs":[{"name":"previousOwner","type":"address","indexed":true,"internalType":"address"},{"name":"newOwner","type":"address","indexed":true,"internalType":"address"}],"anonymous":false},{"type":"error","name":"OwnableInvalidOwner","inputs":[{"name":"owner","type":"address","internalType":"address"}]},{"type":"error","name":"OwnableUnauthorizedAccount","inputs":[{"name":"account","type":"address","internalType":"address"}]}],"bytecode":{"object":"0x608060405234801561000f575f80fd5b50338061003557604051631e4fbdf760e01b81525f600482015260240160405180910390fd5b61003e81610051565b506004805460ff191660011790556100a0565b5f80546001600160a01b038381166001600160a01b0319831681178455604051919092169283917f8be0079c531659141344cd1fd0a4f28419497f9722a3daafe3b4186f6b6457e09190a35050565b610ba3806100ad5f395ff3fe608060405234801561000f575f80fd5b50600436106100fb575f3560e01c8063a9be842211610093578063e90f1a4311610063578063e90f1a4314610213578063eacb03661461023b578063ece5cbdf1461025a578063f2fde38b1461026d575f80fd5b8063a9be8422146101c2578063b380df98146101d5578063b6925afe146101ed578063c482b87414610200575f80fd5b80635bdddcd0116100ce5780635bdddcd014610171578063715018a6146101795780638da5cb5b14610181578063a5a2c62e146101a5575f80fd5b80630bb30e24146100ff578063268339dd146101285780632c0dc14f1461013d57806331d98b3f1461015e575b5f80fd5b61011261010d36600461096a565b610280565b60405161011f9190610981565b60405180910390f35b61013b6101363660046109df565b6102df565b005b61015061014b3660046109ff565b610397565b60405190815260200161011f565b61015061016c36600461096a565b6103c2565b610150603c81565b61013b610578565b5f546001600160a01b03165b6040516001600160a01b03909116815260200161011f565b6004546101b29060ff1681565b604051901515815260200161011f565b61013b6101d03660046109ff565b61058b565b60045461018d9061010090046001600160a01b031681565b61013b6101fb366004610a1f565b6106a2565b61015061020e366004610a3e565b6106eb565b61018d61022136600461096a565b60016020525f90815260409020546001600160a01b031681565b61015061024936600461096a565b60036020525f908152604090205481565b61013b610268366004610a71565b610801565b61013b61027b3660046109df565b6108b2565b5f818152600260209081526040918290208054835181840281018401909452808452606093928301828280156102d357602002820191905f5260205f20905b8154815260200190600101908083116102bf575b50505050509050919050565b6102e76108ef565b6001600160a01b03811661033a5760405162461bcd60e51b8152602060048201526015602482015274496e76616c6964206167656e74206164647265737360581b60448201526064015b60405180910390fd5b60048054610100600160a81b0319166101006001600160a01b038416908102919091179091556040519081527fae95514baf2c7f52043cb56e9c2a48bf64be97715cc8c3a6bb6c02ec2916f78c906020015b60405180910390a150565b6002602052815f5260405f2081815481106103b0575f80fd5b905f5260205f20015f91509150505481565b6004545f9060ff1615610427575f828152600360205260408120549081136104215760405162461bcd60e51b8152602060048201526012602482015271135bd8dac81c1c9a58d9481b9bdd081cd95d60721b6044820152606401610331565b92915050565b5f828152600160205260409020546001600160a01b0316806104805760405162461bcd60e51b8152602060048201526012602482015271139bc81999595908199bdc881b585c9ad95d60721b6044820152606401610331565b5f80826001600160a01b031663feaf968c6040518163ffffffff1660e01b815260040160a060405180830381865afa1580156104be573d5f803e3d5ffd5b505050506040513d601f19601f820116820180604052508101906104e29190610ab4565b509350509250505f82136105285760405162461bcd60e51b815260206004820152600d60248201526c496e76616c696420707269636560981b6044820152606401610331565b603c6105348242610b14565b11156105705760405162461bcd60e51b815260206004820152600b60248201526a5374616c6520707269636560a81b6044820152606401610331565b509392505050565b6105806108ef565b6105895f61091b565b565b5f546001600160a01b03163314806105b2575060045461010090046001600160a01b031633145b6105ef5760405162461bcd60e51b815260206004820152600e60248201526d139bdd08185d5d1a1bdc9a5e995960921b6044820152606401610331565b5f81136106375760405162461bcd60e51b81526020600482015260166024820152755072696365206d75737420626520706f73697469766560501b6044820152606401610331565b5f82815260036020908152604080832084905560028252808320805460018101825590845291909220018290555182907fa9e2dacbc9e2de0ad729cf9ac2123004cabfa7d9b6ac3d743bac0d355cc8124c906106969084815260200190565b60405180910390a25050565b6106aa6108ef565b6004805460ff19168215159081179091556040519081527f0a5357e033c19415846ace57feeef3742b9780be486487f0dea520b2f33168f39060200161038c565b5f82815260026020526040812080546107395760405162461bcd60e51b815260206004820152601060248201526f4e6f20707269636520686973746f727960801b6044820152606401610331565b5f8360ff16116107815760405162461bcd60e51b81526020600482015260136024820152720506572696f6473206d757374206265203e203606c1b6044820152606401610331565b80545f9060ff851611610797578360ff1661079a565b81545b90505f808284805490506107ae9190610b14565b9050805b84548110156107eb578481815481106107cd576107cd610b27565b905f5260205f200154836107e19190610b3b565b92506001016107b2565b506107f68383610b4e565b979650505050505050565b6108096108ef565b6001600160a01b0381166108565760405162461bcd60e51b8152602060048201526014602482015273496e76616c69642066656564206164647265737360601b6044820152606401610331565b5f8281526001602090815260409182902080546001600160a01b0319166001600160a01b038516908117909155915191825283917fa7b4b895adc2bbe350ba8c40717ddb0df8848797d37df844acb33130f38ad8949101610696565b6108ba6108ef565b6001600160a01b0381166108e357604051631e4fbdf760e01b81525f6004820152602401610331565b6108ec8161091b565b50565b5f546001600160a01b031633146105895760405163118cdaa760e01b8152336004820152602401610331565b5f80546001600160a01b038381166001600160a01b0319831681178455604051919092169283917f8be0079c531659141344cd1fd0a4f28419497f9722a3daafe3b4186f6b6457e09190a35050565b5f6020828403121561097a575f80fd5b5035919050565b602080825282518282018190525f9190848201906040850190845b818110156109b85783518352928401929184019160010161099c565b50909695505050505050565b80356001600160a01b03811681146109da575f80fd5b919050565b5f602082840312156109ef575f80fd5b6109f8826109c4565b9392505050565b5f8060408385031215610a10575f80fd5b50508035926020909101359150565b5f60208284031215610a2f575f80fd5b813580151581146109f8575f80fd5b5f8060408385031215610a4f575f80fd5b82359150602083013560ff81168114610a66575f80fd5b809150509250929050565b5f8060408385031215610a82575f80fd5b82359150610a92602084016109c4565b90509250929050565b805169ffffffffffffffffffff811681146109da575f80fd5b5f805f805f60a08688031215610ac8575f80fd5b610ad186610a9b565b9450602086015193506040860151925060608601519150610af460808701610a9b565b90509295509295909350565b634e487b7160e01b5f52601160045260245ffd5b8181038181111561042157610421610b00565b634e487b7160e01b5f52603260045260245ffd5b8082018082111561042157610421610b00565b5f82610b6857634e487b7160e01b5f52601260045260245ffd5b50049056fea26469706673582212203a0a11570e72571177a3f2d66d99b747b89fd03bd7e04c6d3cee6e3dde22369964736f6c63430008180033","linkReferences":{}},"methodIdentifiers":{"STALE_THRESHOLD()":"5bdddcd0","addFeed(bytes32,address)":"ece5cbdf","feeds(bytes32)":"e90f1a43","getPrice(bytes32)":"31d98b3f","getPriceHistory(bytes32)":"0bb30e24","getTWAP(bytes32,uint8)":"c482b874","hermesAgent()":"b380df98","isMockMode()":"a5a2c62e","mockPrices(bytes32)":"eacb0366","owner()":"8da5cb5b","priceHistory(bytes32,uint256)":"2c0dc14f","renounceOwnership()":"715018a6","setHermesAgent(address)":"268339dd","setMockMode(bool)":"b6925afe","transferOwnership(address)":"f2fde38b","updateMockPrice(bytes32,int256)":"a9be8422"},"id":42}