{"abi":[{"type":"constructor","inputs":[],"stateMutability":"nonpayable"},{"type":"function","name":"allowsShort","inputs":[{"name":"strategyType","type":"uint8","internalType":"enum ArcanaStrategy.StrategyType"}],"outputs":[{"name":"","type":"bool","internalType":"bool"}],"stateMutability":"view"},{"type":"function","name":"getConfig","inputs":[{"name":"strategyType","type":"uint8","internalType":"enum ArcanaStrategy.StrategyType"}],"outputs":[{"name":"","type":"tuple","internalType":"struct ArcanaStrategy.StrategyConfig","components":[{"name":"name","type":"string","internalType":"string"},{"name":"maxLeverage","type":"uint8","internalType":"uint8"},{"name":"longOnly","type":"bool","internalType":"bool"},{"name":"stopLossBPS","type":"uint256","internalType":"uint256"},{"name":"takeProfitBPS","type":"uint256","internalType":"uint256"},{"name":"cooldownSeconds","type":"uint256","internalType":"uint256"},{"name":"maxPositionCount","type":"uint256","internalType":"uint256"}]}],"stateMutability":"view"},{"type":"function","name":"getMaxPositionCount","inputs":[{"name":"strategyType","type":"uint8","internalType":"enum ArcanaStrategy.StrategyType"}],"outputs":[{"name":"","type":"uint256","internalType":"uint256"}],"stateMutability":"view"},{"type":"function","name":"validateLeverage","inputs":[{"name":"strategyType","type":"uint8","internalType":"enum ArcanaStrategy.StrategyType"},{"name":"leverage","type":"uint8","internalType":"uint8"}],"outputs":[{"name":"","type":"bool","internalType":"bool"}],"stateMutability":"view"}],"bytecode":{"object":"0x608060405234801561000f575f80fd5b506040805161012081018252600660e082019081526541504f4c4c4f60d01b610100830152815260036020808301919091526001928201929092526101f460608201526103e8608082015261038460a0820152600260c08201525f80805290915280517fad3228b676f7d3cd4284a5443f17f1962b36e491b30a40b2405849e597ba5fb59081906100a0908261039d565b506020828101516001838101805460408088015160ff90951661ffff1990921691909117610100941515850217909155606080870151600287015560808088015160038089019190915560a0808a015160048a015560c0998a01516005998a015584516101208101865260e081018a81526441544c415360d81b98820198909852968752868801989098525f9386018490526103e8928601929092526107d09085015261025895840195909552948201939093529183529190915280517fada5013122d395ba3c54772283fb069b10426056ef8ca54750cb9bb552a59e7d90819061018b908261039d565b506020820151816001015f6101000a81548160ff021916908360ff16021790555060408201518160010160016101000a81548160ff021916908315150217905550606082015181600201556080820151816003015560a0820151816004015560c082015181600501559050506040518060e00160405280604051806040016040528060048152602001634152455360e01b8152508152602001600a60ff1681526020015f151581526020016107d08152602001611388815260200161012c815260200160058152505f80600280811115610267576102676102f1565b6002811115610278576102786102f1565b815260208101919091526040015f2081518190610295908261039d565b506020820151600182018054604085015115156101000261ffff1990911660ff90931692909217919091179055606082015160028201556080820151600382015560a0820151600482015560c09091015160059091015561045c565b634e487b7160e01b5f52602160045260245ffd5b634e487b7160e01b5f52604160045260245ffd5b600181811c9082168061032d57607f821691505b60208210810361034b57634e487b7160e01b5f52602260045260245ffd5b50919050565b601f82111561039857805f5260205f20601f840160051c810160208510156103765750805b601f840160051c820191505b81811015610395575f8155600101610382565b50505b505050565b81516001600160401b038111156103b6576103b6610305565b6103ca816103c48454610319565b84610351565b602080601f8311600181146103fd575f84156103e65750858301515b5f19600386901b1c1916600185901b178555610454565b5f85815260208120601f198616915b8281101561042b5788860151825594840194600190910190840161040c565b508582101561044857878501515f19600388901b60f8161c191681555b505060018460011b0185555b505050505050565b61048f806104695f395ff3fe608060405234801561000f575f80fd5b506004361061004a575f3560e01c806318bfd45d1461004e578063c21f310e14610076578063d045064314610089578063ff08603d146100aa575b5f80fd5b61006161005c366004610312565b6100ca565b60405190151581526020015b60405180910390f35b61006161008436600461032b565b610112565b61009c610097366004610312565b61016a565b60405190815260200161006d565b6100bd6100b8366004610312565b6101a8565b60405161006d9190610365565b5f805f8360028111156100df576100df61040d565b60028111156100f0576100f061040d565b815260208101919091526040015f2060010154610100900460ff161592915050565b5f808260ff1611801561016357505f808460028111156101345761013461040d565b60028111156101455761014561040d565b815260208101919091526040015f206001015460ff90811690831611155b9392505050565b5f805f83600281111561017f5761017f61040d565b60028111156101905761019061040d565b81526020019081526020015f20600501549050919050565b6101e76040518060e00160405280606081526020015f60ff1681526020015f151581526020015f81526020015f81526020015f81526020015f81525090565b5f808360028111156101fb576101fb61040d565b600281111561020c5761020c61040d565b81526020019081526020015f206040518060e00160405290815f8201805461023390610421565b80601f016020809104026020016040519081016040528092919081815260200182805461025f90610421565b80156102aa5780601f10610281576101008083540402835291602001916102aa565b820191905f5260205f20905b81548152906001019060200180831161028d57829003601f168201915b5050509183525050600182015460ff808216602084015261010090910416151560408201526002820154606082015260038201546080820152600482015460a082015260059091015460c09091015292915050565b80356003811061030d575f80fd5b919050565b5f60208284031215610322575f80fd5b610163826102ff565b5f806040838503121561033c575f80fd5b610345836102ff565b9150602083013560ff8116811461035a575f80fd5b809150509250929050565b5f6020808352835160e060208501528051806101008601525f5b8181101561039c578281018401518682016101200152830161037f565b5061012092505f838287010152602086015191506103bf604086018360ff169052565b60408601518015156060870152915060608601516080860152608086015160a086015260a086015160c086015260c086015160e086015282601f19601f830116860101935050505092915050565b634e487b7160e01b5f52602160045260245ffd5b600181811c9082168061043557607f821691505b60208210810361045357634e487b7160e01b5f52602260045260245ffd5b5091905056fea26469706673582212209518cdfa8b3a9fe227f7b39db226ca692b14041660a35766a74107a92404ea8364736f6c63430008180033","linkReferences":{}},"methodIdentifiers":{"allowsShort(uint8)":"18bfd45d","getConfig(uint8)":"ff08603d","getMaxPositionCount(uint8)":"d0450643","validateLeverage(uint8,uint8)":"c21f310e"},"id":45}