{"abi":[{"type":"constructor","inputs":[],"stateMutability":"nonpayable"},{"type":"function","name":"closePosition","inputs":[{"name":"positionId","type":"uint256","internalType":"uint256"}],"outputs":[],"stateMutability":"nonpayable"},{"type":"function","name":"engine","inputs":[],"outputs":[{"name":"","type":"address","internalType":"address"}],"stateMutability":"view"},{"type":"function","name":"getOpenPositionCount","inputs":[{"name":"vault","type":"address","internalType":"address"}],"outputs":[{"name":"","type":"uint256","internalType":"uint256"}],"stateMutability":"view"},{"type":"function","name":"getVaultPositions","inputs":[{"name":"vault","type":"address","internalType":"address"}],"outputs":[{"name":"","type":"uint256[]","internalType":"uint256[]"}],"stateMutability":"view"},{"type":"function","name":"owner","inputs":[],"outputs":[{"name":"","type":"address","internalType":"address"}],"stateMutability":"view"},{"type":"function","name":"positionInfo","inputs":[{"name":"","type":"uint256","internalType":"uint256"}],"outputs":[{"name":"positionId","type":"uint256","internalType":"uint256"},{"name":"vault","type":"address","internalType":"address"},{"name":"openedAt","type":"uint256","internalType":"uint256"},{"name":"isOpen","type":"bool","internalType":"bool"}],"stateMutability":"view"},{"type":"function","name":"registerPosition","inputs":[{"name":"vault","type":"address","internalType":"address"},{"name":"positionId","type":"uint256","internalType":"uint256"}],"outputs":[],"stateMutability":"nonpayable"},{"type":"function","name":"renounceOwnership","inputs":[],"outputs":[],"stateMutability":"nonpayable"},{"type":"function","name":"setEngine","inputs":[{"name":"_engine","type":"address","internalType":"address"}],"outputs":[],"stateMutability":"nonpayable"},{"type":"function","name":"transferOwnership","inputs":[{"name":"newOwner","type":"address","internalType":"address"}],"outputs":[],"stateMutability":"nonpayable"},{"type":"function","name":"vaultPositions","inputs":[{"name":"","type":"address","internalType":"address"},{"name":"","type":"uint256","internalType":"uint256"}],"outputs":[{"name":"","type":"uint256","internalType":"uint256"}],"stateMutability":"view"},{"type":"event","name":"EngineSet","inputs":[{"name":"engine","type":"address","indexed":false,"internalType":"address"}],"anonymous":false},{"type":"event","name":"OwnershipTransferred","inputs":[{"name":"previousOwner","type":"address","indexed":true,"internalType":"address"},{"name":"newOwner","type":"address","indexed":true,"internalType":"address"}],"anonymous":false},{"type":"event","name":"PositionClosed","inputs":[{"name":"positionId","type":"uint256","indexed":true,"internalType":"uint256"}],"anonymous":false},{"type":"event","name":"PositionRegistered","inputs":[{"name":"positionId","type":"uint256","indexed":true,"internalType":"uint256"},{"name":"vault","type":"address","indexed":true,"internalType":"address"}],"anonymous":false},{"type":"error","name":"OwnableInvalidOwner","inputs":[{"name":"owner","type":"address","internalType":"address"}]},{"type":"error","name":"OwnableUnauthorizedAccount","inputs":[{"name":"account","type":"address","internalType":"address"}]}],"bytecode":{"object":"0x608060405234801561000f575f80fd5b50338061003557604051631e4fbdf760e01b81525f600482015260240160405180910390fd5b61003e81610044565b50610093565b5f80546001600160a01b038381166001600160a01b0319831681178455604051919092169283917f8be0079c531659141344cd1fd0a4f28419497f9722a3daafe3b4186f6b6457e09190a35050565b61084b806100a05f395ff3fe608060405234801561000f575f80fd5b50600436106100a6575f3560e01c806389097a6a1161006e57806389097a6a146101205780638da5cb5b1461018c578063a126d601146101b0578063b6a365b3146101c3578063c9d4623f146101d6578063f2fde38b146101e9575f80fd5b8063064ff3f2146100aa5780630e830e49146100bf5780632dae26e2146100d257806358020863146100f8578063715018a614610118575b5f80fd5b6100bd6100b836600461073b565b6101fc565b005b6100bd6100cd366004610763565b6103bc565b6100e56100e0366004610763565b610467565b6040519081526020015b60405180910390f35b61010b610106366004610763565b6104e3565b6040516100ef9190610783565b6100bd61054c565b61016261012e3660046107c6565b600260208190525f9182526040909120805460018201549282015460039092015490926001600160a01b0316919060ff1684565b604080519485526001600160a01b03909316602085015291830152151560608201526080016100ef565b5f546001600160a01b03165b6040516001600160a01b0390911681526020016100ef565b6100bd6101be3660046107c6565b61055f565b6100e56101d136600461073b565b61063d565b600354610198906001600160a01b031681565b6100bd6101f7366004610763565b610668565b6003546001600160a01b031633146102495760405162461bcd60e51b815260206004820152600b60248201526a4f6e6c7920656e67696e6560a81b60448201526064015b60405180910390fd5b6001600160a01b03821661028f5760405162461bcd60e51b815260206004820152600d60248201526c125b9d985b1a59081d985d5b1d609a1b6044820152606401610240565b5f8181526002602052604090206003015460ff1615806102be57505f8181526002602081905260409091200154155b6102fc5760405162461bcd60e51b815260206004820152600f60248201526e506f736974696f6e2065786973747360881b6044820152606401610240565b604080516080810182528281526001600160a01b038481166020808401828152428587019081526001606087018181525f8a815260028087528a822099518a55945189840180546001600160a01b0319169190991617909755915192870192909255516003909501805460ff19169515159590951790945581835283815284832080549485018155835282209092018490559151909183917fd401917ae4493ba0bb7d26cd0b70592db4a19042aa7a59628469109a24ab3e7e9190a35050565b6103c46106a5565b6001600160a01b0381166104135760405162461bcd60e51b8152602060048201526016602482015275496e76616c696420656e67696e65206164647265737360501b6044820152606401610240565b600380546001600160a01b0319166001600160a01b0383169081179091556040519081527fffdd1f97bc690cbcf97d0ea457d2e0913b439d14c33cde4b5ef892169f39f6b39060200160405180910390a150565b6001600160a01b0381165f90815260016020526040812081805b82548110156104db5760025f84838154811061049f5761049f6107dd565b5f918252602080832090910154835282019290925260400190206003015460ff16156104d357816104cf816107f1565b9250505b600101610481565b509392505050565b6001600160a01b0381165f9081526001602090815260409182902080548351818402810184019094528084526060939283018282801561054057602002820191905f5260205f20905b81548152602001906001019080831161052c575b50505050509050919050565b6105546106a5565b61055d5f6106d1565b565b6003546001600160a01b031633146105a75760405162461bcd60e51b815260206004820152600b60248201526a4f6e6c7920656e67696e6560a81b6044820152606401610240565b5f8181526002602052604090206003015460ff166105fb5760405162461bcd60e51b81526020600482015260116024820152702837b9b4ba34b7b7103737ba1037b832b760791b6044820152606401610240565b5f81815260026020526040808220600301805460ff191690555182917fbf542298705ed6fd22ddf94ee2db731ced9191396e6e7f7b6862803555f9ff2191a250565b6001602052815f5260405f208181548110610656575f80fd5b905f5260205f20015f91509150505481565b6106706106a5565b6001600160a01b03811661069957604051631e4fbdf760e01b81525f6004820152602401610240565b6106a2816106d1565b50565b5f546001600160a01b0316331461055d5760405163118cdaa760e01b8152336004820152602401610240565b5f80546001600160a01b038381166001600160a01b0319831681178455604051919092169283917f8be0079c531659141344cd1fd0a4f28419497f9722a3daafe3b4186f6b6457e09190a35050565b80356001600160a01b0381168114610736575f80fd5b919050565b5f806040838503121561074c575f80fd5b61075583610720565b946020939093013593505050565b5f60208284031215610773575f80fd5b61077c82610720565b9392505050565b602080825282518282018190525f9190848201906040850190845b818110156107ba5783518352928401929184019160010161079e565b50909695505050505050565b5f602082840312156107d6575f80fd5b5035919050565b634e487b7160e01b5f52603260045260245ffd5b5f6001820161080e57634e487b7160e01b5f52601160045260245ffd5b506001019056fea2646970667358221220e48bf50ee606c9142aada24b44719942ff1ff40b3b64c31128b9040c1ae0619964736f6c63430008180033","linkReferences":{}},"methodIdentifiers":{"closePosition(uint256)":"a126d601","engine()":"c9d4623f","getOpenPositionCount(address)":"2dae26e2","getVaultPositions(address)":"58020863","owner()":"8da5cb5b","positionInfo(uint256)":"89097a6a","registerPosition(address,uint256)":"064ff3f2","renounceOwnership()":"715018a6","setEngine(address)":"0e830e49","transferOwnership(address)":"f2fde38b","vaultPositions(address,uint256)":"b6a365b3"},"id":44}