{"abi":[{"type":"constructor","inputs":[{"name":"_oracle","type":"address","internalType":"address"},{"name":"_posManager","type":"address","internalType":"address"},{"name":"_usdc","type":"address","internalType":"address"}],"stateMutability":"nonpayable"},{"type":"function","name":"BPS_DENOMINATOR","inputs":[],"outputs":[{"name":"","type":"uint256","internalType":"uint256"}],"stateMutability":"view"},{"type":"function","name":"LIQUIDATION_BONUS","inputs":[],"outputs":[{"name":"","type":"uint256","internalType":"uint256"}],"stateMutability":"view"},{"type":"function","name":"LIQUIDATION_THRESHOLD","inputs":[],"outputs":[{"name":"","type":"uint256","internalType":"uint256"}],"stateMutability":"view"},{"type":"function","name":"addLiquidity","inputs":[{"name":"amount","type":"uint256","internalType":"uint256"}],"outputs":[],"stateMutability":"nonpayable"},{"type":"function","name":"applyFunding","inputs":[{"name":"positionId","type":"uint256","internalType":"uint256"}],"outputs":[],"stateMutability":"nonpayable"},{"type":"function","name":"closePosition","inputs":[{"name":"positionId","type":"uint256","internalType":"uint256"}],"outputs":[{"name":"pnl","type":"int256","internalType":"int256"}],"stateMutability":"nonpayable"},{"type":"function","name":"fundingRatePerHour","inputs":[],"outputs":[{"name":"","type":"uint256","internalType":"uint256"}],"stateMutability":"view"},{"type":"function","name":"getUnrealizedPnL","inputs":[{"name":"positionId","type":"uint256","internalType":"uint256"}],"outputs":[{"name":"","type":"int256","internalType":"int256"}],"stateMutability":"view"},{"type":"function","name":"getVaultOpenPositions","inputs":[{"name":"vault","type":"address","internalType":"address"}],"outputs":[{"name":"","type":"uint256[]","internalType":"uint256[]"}],"stateMutability":"view"},{"type":"function","name":"isLiquidatable","inputs":[{"name":"positionId","type":"uint256","internalType":"uint256"}],"outputs":[{"name":"","type":"bool","internalType":"bool"}],"stateMutability":"view"},{"type":"function","name":"liquidate","inputs":[{"name":"positionId","type":"uint256","internalType":"uint256"}],"outputs":[{"name":"","type":"int256","internalType":"int256"}],"stateMutability":"nonpayable"},{"type":"function","name":"nextPositionId","inputs":[],"outputs":[{"name":"","type":"uint256","internalType":"uint256"}],"stateMutability":"view"},{"type":"function","name":"openPosition","inputs":[{"name":"vault","type":"address","internalType":"address"},{"name":"market","type":"bytes32","internalType":"bytes32"},{"name":"isLong","type":"bool","internalType":"bool"},{"name":"collateral","type":"uint256","internalType":"uint256"},{"name":"leverage","type":"uint8","internalType":"uint8"}],"outputs":[{"name":"","type":"uint256","internalType":"uint256"}],"stateMutability":"nonpayable"},{"type":"function","name":"oracle","inputs":[],"outputs":[{"name":"","type":"address","internalType":"contract ArcanaOracle"}],"stateMutability":"view"},{"type":"function","name":"owner","inputs":[],"outputs":[{"name":"","type":"address","internalType":"address"}],"stateMutability":"view"},{"type":"function","name":"posManager","inputs":[],"outputs":[{"name":"","type":"address","internalType":"contract ArcanaPositionManager"}],"stateMutability":"view"},{"type":"function","name":"positions","inputs":[{"name":"","type":"uint256","internalType":"uint256"}],"outputs":[{"name":"id","type":"uint256","internalType":"uint256"},{"name":"vault","type":"address","internalType":"address"},{"name":"market","type":"bytes32","internalType":"bytes32"},{"name":"isLong","type":"bool","internalType":"bool"},{"name":"size","type":"uint256","internalType":"uint256"},{"name":"entryPrice","type":"uint256","internalType":"uint256"},{"name":"leverage","type":"uint8","internalType":"uint8"},{"name":"collateral","type":"uint256","internalType":"uint256"},{"name":"openedAt","type":"uint256","internalType":"uint256"},{"name":"isOpen","type":"bool","internalType":"bool"},{"name":"fundingAccrued","type":"int256","internalType":"int256"}],"stateMutability":"view"},{"type":"function","name":"renounceOwnership","inputs":[],"outputs":[],"stateMutability":"nonpayable"},{"type":"function","name":"setFundingRate","inputs":[{"name":"_ratePerHour","type":"uint256","internalType":"uint256"}],"outputs":[],"stateMutability":"nonpayable"},{"type":"function","name":"setVault","inputs":[{"name":"_vault","type":"address","internalType":"address"}],"outputs":[],"stateMutability":"nonpayable"},{"type":"function","name":"transferOwnership","inputs":[{"name":"newOwner","type":"address","internalType":"address"}],"outputs":[],"stateMutability":"nonpayable"},{"type":"function","name":"usdc","inputs":[],"outputs":[{"name":"","type":"address","internalType":"contract IERC20"}],"stateMutability":"view"},{"type":"function","name":"vaultContract","inputs":[],"outputs":[{"name":"","type":"address","internalType":"address"}],"stateMutability":"view"},{"type":"function","name":"vaultPositions","inputs":[{"name":"","type":"address","internalType":"address"},{"name":"","type":"uint256","internalType":"uint256"}],"outputs":[{"name":"","type":"uint256","internalType":"uint256"}],"stateMutability":"view"},{"type":"event","name":"FundingApplied","inputs":[{"name":"id","type":"uint256","indexed":true,"internalType":"uint256"},{"name":"fundingAmount","type":"int256","indexed":false,"internalType":"int256"}],"anonymous":false},{"type":"event","name":"FundingRateUpdated","inputs":[{"name":"newRate","type":"uint256","indexed":false,"internalType":"uint256"}],"anonymous":false},{"type":"event","name":"OwnershipTransferred","inputs":[{"name":"previousOwner","type":"address","indexed":true,"internalType":"address"},{"name":"newOwner","type":"address","indexed":true,"internalType":"address"}],"anonymous":false},{"type":"event","name":"PositionClosed","inputs":[{"name":"id","type":"uint256","indexed":true,"internalType":"uint256"},{"name":"pnl","type":"int256","indexed":false,"internalType":"int256"},{"name":"exitPrice","type":"uint256","indexed":false,"internalType":"uint256"}],"anonymous":false},{"type":"event","name":"PositionLiquidated","inputs":[{"name":"id","type":"uint256","indexed":true,"internalType":"uint256"},{"name":"liquidator","type":"address","indexed":false,"internalType":"address"},{"name":"pnl","type":"int256","indexed":false,"internalType":"int256"}],"anonymous":false},{"type":"event","name":"PositionOpened","inputs":[{"name":"id","type":"uint256","indexed":true,"internalType":"uint256"},{"name":"vault","type":"address","indexed":false,"internalType":"address"},{"name":"market","type":"bytes32","indexed":false,"internalType":"bytes32"},{"name":"isLong","type":"bool","indexed":false,"internalType":"bool"},{"name":"size","type":"uint256","indexed":false,"internalType":"uint256"},{"name":"leverage","type":"uint8","indexed":false,"internalType":"uint8"},{"name":"entryPrice","type":"uint256","indexed":false,"internalType":"uint256"}],"anonymous":false},{"type":"event","name":"VaultSet","inputs":[{"name":"vault","type":"address","indexed":false,"internalType":"address"}],"anonymous":false},{"type":"error","name":"OwnableInvalidOwner","inputs":[{"name":"owner","type":"address","internalType":"address"}]},{"type":"error","name":"OwnableUnauthorizedAccount","inputs":[{"name":"account","type":"address","internalType":"address"}]},{"type":"error","name":"ReentrancyGuardReentrantCall","inputs":[]},{"type":"error","name":"SafeERC20FailedOperation","inputs":[{"name":"token","type":"address","internalType":"address"}]}],"bytecode":{"object":"0x6080604052655af3107a40006004553480156200001a575f80fd5b5060405162001a2738038062001a278339810160408190526200003d916200022a565b33806200006457604051631e4fbdf760e01b81525f60048201526024015b60405180910390fd5b6200006f81620001bf565b5060017f9b779b17422d0df92223018b32b4d1fa46e071723d6817e2486d003becc55f00556001600160a01b038316620000dd5760405162461bcd60e51b815260206004820152600e60248201526d496e76616c6964206f7261636c6560901b60448201526064016200005b565b6001600160a01b038216620001355760405162461bcd60e51b815260206004820152601360248201527f496e76616c696420706f73206d616e616765720000000000000000000000000060448201526064016200005b565b6001600160a01b0381166200017c5760405162461bcd60e51b815260206004820152600c60248201526b496e76616c6964205553444360a01b60448201526064016200005b565b600580546001600160a01b039485166001600160a01b03199182161790915560068054938516938216939093179092556007805491909316911617905562000271565b5f80546001600160a01b038381166001600160a01b0319831681178455604051919092169283917f8be0079c531659141344cd1fd0a4f28419497f9722a3daafe3b4186f6b6457e09190a35050565b80516001600160a01b038116811462000225575f80fd5b919050565b5f805f606084860312156200023d575f80fd5b62000248846200020e565b925062000258602085016200020e565b915062000268604085016200020e565b90509250925092565b6117a8806200027f5f395ff3fe608060405234801561000f575f80fd5b5060043610610153575f3560e01c80637dc0d1d0116100bf578063b6a365b311610079578063b6a365b31461037a578063c7503db31461038d578063dd0f8d2d146103a0578063e1a45218146103b3578063f17014d6146103bc578063f2fde38b146103dc575f80fd5b80637dc0d1d014610259578063899346c71461026c5780638da5cb5b1461027557806390a8ae9b1461028557806399fbab881461028e578063a126d60114610367575f80fd5b8063415f124011610110578063415f1240146101fa5780634e7773f41461020d57806351c6590a146102205780636817031b14610235578063715018a61461024857806373b2eaef14610250575f80fd5b80630f259013146101575780631086160d1461017d578063211a4443146101905780632274346b146101b35780633574d4c4146101de5780633e413bee146101e7575b5f80fd5b61016a6101653660046114ba565b6103ef565b6040519081526020015b60405180910390f35b61016a61018b3660046114e7565b6103ff565b6101a361019e3660046114ba565b610855565b6040519015158152602001610174565b6008546101c6906001600160a01b031681565b6040516001600160a01b039091168152602001610174565b61016a6101f481565b6007546101c6906001600160a01b031681565b61016a6102083660046114ba565b6108cb565b6006546101c6906001600160a01b031681565b61023361022e3660046114ba565b610b54565b005b610233610243366004611549565b610b6f565b610233610c12565b61016a60045481565b6005546101c6906001600160a01b031681565b61016a60035481565b5f546001600160a01b03166101c6565b61016a611f4081565b61030761029c3660046114ba565b600160208190525f918252604090912080549181015460028201546003830154600484015460058501546006860154600787015460088801546009890154600a909901546001600160a01b0390981698969760ff96871697959694959385169492939192909116908b565b604080519b8c526001600160a01b03909a1660208c0152988a01979097529415156060890152608088019390935260a087019190915260ff1660c086015260e0850152610100840152151561012083015261014082015261016001610174565b61016a6103753660046114ba565b610c25565b61016a610388366004611569565b610eac565b61023361039b3660046114ba565b610ed7565b6102336103ae3660046114ba565b610ee0565b61016a61271081565b6103cf6103ca366004611549565b610f1d565b6040516101749190611591565b6102336103ea366004611549565b61107a565b5f6103f9826110b4565b92915050565b6008545f906001600160a01b0316331461044d5760405162461bcd60e51b815260206004820152600a60248201526913db9b1e481d985d5b1d60b21b60448201526064015b60405180910390fd5b6104556111ba565b5f83116104965760405162461bcd60e51b815260206004820152600f60248201526e16995c9bc818dbdb1b185d195c985b608a1b6044820152606401610444565b60018260ff16101580156104ae5750600a8260ff1611155b6104e95760405162461bcd60e51b815260206004820152600c60248201526b426164206c6576657261676560a01b6044820152606401610444565b5f6104f760ff8416856115e8565b6005546040516331d98b3f60e01b8152600481018990529192505f916001600160a01b03909116906331d98b3f90602401602060405180830381865afa158015610543573d5f803e3d5ffd5b505050506040513d601f19601f8201168201806040525081019061056791906115ff565b90505f81136105a85760405162461bcd60e51b815260206004820152600d60248201526c496e76616c696420707269636560981b6044820152606401610444565b6003805482915f9190826105bb83611616565b9190505590506040518061016001604052808281526020018b6001600160a01b031681526020018a815260200189151581526020018581526020018381526020018760ff1681526020018881526020014281526020016001151581526020015f81525060015f8381526020019081526020015f205f820151815f01556020820151816001015f6101000a8154816001600160a01b0302191690836001600160a01b03160217905550604082015181600201556060820151816003015f6101000a81548160ff0219169083151502179055506080820151816004015560a0820151816005015560c0820151816006015f6101000a81548160ff021916908360ff16021790555060e082015181600701556101008201518160080155610120820151816009015f6101000a81548160ff02191690831515021790555061014082015181600a015590505060025f8b6001600160a01b03166001600160a01b031681526020019081526020015f2081908060018154018082558091505060019003905f5260205f20015f909190919091505560065f9054906101000a90046001600160a01b03166001600160a01b031663064ff3f28b836040518363ffffffff1660e01b81526004016107a09291906001600160a01b03929092168252602082015260400190565b5f604051808303815f87803b1580156107b7575f80fd5b505af11580156107c9573d5f803e3d5ffd5b5050604080516001600160a01b038e168152602081018d90528b1515818301526060810188905260ff8a16608082015260a0810186905290518493507feb014a878bd0bd0c9cd8fb8bc196c78f65d5a5209bec670e8165911f8728166092509081900360c00190a2935050505061084c60015f8051602061175383398151915255565b95945050505050565b5f818152600160205260408120600981015460ff1661087657505f92915050565b5f610880846110b4565b90505f811261089257505f9392505050565b5f61089c8261162e565b90505f612710611f4085600701546108b491906115e8565b6108be919061165c565b9091101595945050505050565b5f6108d46111ba565b6108dd82610855565b61091c5760405162461bcd60e51b815260206004820152601060248201526f4e6f74206c6971756964617461626c6560801b6044820152606401610444565b5f828152600160205260409020600981015460ff166109715760405162461bcd60e51b81526020600482015260116024820152702837b9b4ba34b7b7103737ba1037b832b760791b6044820152606401610444565b61097a836111d5565b5f610984846110b4565b60055460028401546040516331d98b3f60e01b81529293505f926001600160a01b03909216916331d98b3f916109c09160040190815260200190565b602060405180830381865afa1580156109db573d5f803e3d5ffd5b505050506040513d601f19601f820116820180604052508101906109ff91906115ff565b60098401805460ff1916905560065460405163a126d60160e01b8152600481018890529192506001600160a01b03169063a126d601906024015f604051808303815f87803b158015610a4f575f80fd5b505af1158015610a61573d5f803e3d5ffd5b505050506007830154600a8401545f90610a7b858461166f565b610a85919061166f565b90505f80821315610af657612710610a9f6101f4846115e8565b610aa9919061165c565b90505f610ab68284611696565b90508015610add576001870154600754610add916001600160a01b039182169116836112cb565b600754610af4906001600160a01b031633846112cb565b505b604080513381526020810187905289917fafa4de1dc4ed2f9b586cf82b16afa878ba563ef91e327dfad1c6884809496b46910160405180910390a25092945050505050610b4f60015f8051602061175383398151915255565b919050565b600754610b6c906001600160a01b0316333084611305565b50565b610b77611341565b6001600160a01b038116610bbd5760405162461bcd60e51b815260206004820152600d60248201526c125b9d985b1a59081d985d5b1d609a1b6044820152606401610444565b600880546001600160a01b0319166001600160a01b0383169081179091556040519081527fe7ae49f883c825b05681b3e00e8be6fdea9ed2a8a45e4c6ecb9390fc44cce615906020015b60405180910390a150565b610c1a611341565b610c235f61136d565b565b6008545f906001600160a01b03163314610c6e5760405162461bcd60e51b815260206004820152600a60248201526913db9b1e481d985d5b1d60b21b6044820152606401610444565b610c766111ba565b5f828152600160205260409020600981015460ff16610ccb5760405162461bcd60e51b81526020600482015260116024820152702837b9b4ba34b7b7103737ba1037b832b760791b6044820152606401610444565b60018101546001600160a01b03163314610d1b5760405162461bcd60e51b81526020600482015260116024820152702737ba103cb7bab9103837b9b4ba34b7b760791b6044820152606401610444565b610d24836111d5565b610d2d836110b4565b60055460028301546040516331d98b3f60e01b81529294505f926001600160a01b03909216916331d98b3f91610d699160040190815260200190565b602060405180830381865afa158015610d84573d5f803e3d5ffd5b505050506040513d601f19601f82011682018060405250810190610da891906115ff565b60098301805460ff1916905560065460405163a126d60160e01b8152600481018790529192506001600160a01b03169063a126d601906024015f604051808303815f87803b158015610df8575f80fd5b505af1158015610e0a573d5f803e3d5ffd5b505050506007820154600a8301545f90610e24868461166f565b610e2e919061166f565b90505f811315610e57576001840154600754610e57916001600160a01b039182169116836112cb565b604080518681526020810185905287917f188c5a1621fdf38505775be572d11aceb0b1e5f518d210077c6f1ca91399d29d910160405180910390a250505050610b4f60015f8051602061175383398151915255565b6002602052815f5260405f208181548110610ec5575f80fd5b905f5260205f20015f91509150505481565b610b6c816111d5565b610ee8611341565b60048190556040518181527f54b4f3d4a67cc5da94aefdc1f13908a295dc0ba318e23f92e728131ed95d27c590602001610c07565b6001600160a01b0381165f908152600260205260408120606091805b8254811015610f935760015f848381548110610f5757610f576116a9565b5f918252602080832090910154835282019290925260400190206009015460ff1615610f8b5781610f8781611616565b9250505b600101610f39565b505f8167ffffffffffffffff811115610fae57610fae6116bd565b604051908082528060200260200182016040528015610fd7578160200160208202803683370190505b5090505f805b845481101561106f5760015f868381548110610ffb57610ffb6116a9565b5f918252602080832090910154835282019290925260400190206009015460ff161561106757848181548110611033576110336116a9565b905f5260205f20015483838061104890611616565b94508151811061105a5761105a6116a9565b6020026020010181815250505b600101610fdd565b509095945050505050565b611082611341565b6001600160a01b0381166110ab57604051631e4fbdf760e01b81525f6004820152602401610444565b610b6c8161136d565b5f818152600160205260408120600981015460ff166110d557505f92915050565b60055460028201546040516331d98b3f60e01b815260048101919091525f916001600160a01b0316906331d98b3f90602401602060405180830381865afa158015611122573d5f803e3d5ffd5b505050506040513d601f19601f8201168201806040525081019061114691906115ff565b60058301546004840154919250905f61115f83856116d1565b60038601549091505f9060ff161561118d578361117c84846116f7565b6111869190611726565b90506111af565b83836111988461162e565b6111a291906116f7565b6111ac9190611726565b90505b979650505050505050565b6111c26113bc565b60025f8051602061175383398151915255565b5f818152600160205260409020600981015460ff166111f2575050565b5f8160080154426112039190611696565b9050805f0361121157505050565b5f68c328093e61ee40000082600454856004015461122f91906115e8565b61123991906115e8565b611243919061165c565b600384015490915060ff1615611271578083600a015f82825461126691906116d1565b9091555061128a9050565b8083600a015f828254611284919061166f565b90915550505b42600884015560405181815284907f4a1999f98614b4cbb9dde0c94e639d0bedb58bc93493540ae853cbc43089560d9060200160405180910390a250505050565b6112d883838360016113eb565b61130057604051635274afe760e01b81526001600160a01b0384166004820152602401610444565b505050565b61131384848484600161144d565b61133b57604051635274afe760e01b81526001600160a01b0385166004820152602401610444565b50505050565b5f546001600160a01b03163314610c235760405163118cdaa760e01b8152336004820152602401610444565b5f80546001600160a01b038381166001600160a01b0319831681178455604051919092169283917f8be0079c531659141344cd1fd0a4f28419497f9722a3daafe3b4186f6b6457e09190a35050565b5f8051602061175383398151915254600203610c2357604051633ee5aeb560e01b815260040160405180910390fd5b60405163a9059cbb60e01b5f8181526001600160a01b038616600452602485905291602083604481808b5af1925060015f51148316611441578383151615611435573d5f823e3d81fd5b5f873b113d1516831692505b60405250949350505050565b6040516323b872dd60e01b5f8181526001600160a01b038781166004528616602452604485905291602083606481808c5af1925060015f511483166114a957838315161561149d573d5f823e3d81fd5b5f883b113d1516831692505b604052505f60605295945050505050565b5f602082840312156114ca575f80fd5b5035919050565b80356001600160a01b0381168114610b4f575f80fd5b5f805f805f60a086880312156114fb575f80fd5b611504866114d1565b9450602086013593506040860135801515811461151f575f80fd5b925060608601359150608086013560ff8116811461153b575f80fd5b809150509295509295909350565b5f60208284031215611559575f80fd5b611562826114d1565b9392505050565b5f806040838503121561157a575f80fd5b611583836114d1565b946020939093013593505050565b602080825282518282018190525f9190848201906040850190845b818110156115c8578351835292840192918401916001016115ac565b50909695505050505050565b634e487b7160e01b5f52601160045260245ffd5b80820281158282048414176103f9576103f96115d4565b5f6020828403121561160f575f80fd5b5051919050565b5f60018201611627576116276115d4565b5060010190565b5f600160ff1b8201611642576116426115d4565b505f0390565b634e487b7160e01b5f52601260045260245ffd5b5f8261166a5761166a611648565b500490565b8082018281125f83128015821682158216171561168e5761168e6115d4565b505092915050565b818103818111156103f9576103f96115d4565b634e487b7160e01b5f52603260045260245ffd5b634e487b7160e01b5f52604160045260245ffd5b8181035f8312801583831316838312821617156116f0576116f06115d4565b5092915050565b8082025f8212600160ff1b84141615611712576117126115d4565b81810583148215176103f9576103f96115d4565b5f8261173457611734611648565b600160ff1b82145f198414161561174d5761174d6115d4565b50059056fe9b779b17422d0df92223018b32b4d1fa46e071723d6817e2486d003becc55f00a26469706673582212208e54f3b934ff5e56f8d8690b060a3eb6e609edbef8afd7b6803e4dce16441bab64736f6c63430008180033","linkReferences":{}},"methodIdentifiers":{"BPS_DENOMINATOR()":"e1a45218","LIQUIDATION_BONUS()":"3574d4c4","LIQUIDATION_THRESHOLD()":"90a8ae9b","addLiquidity(uint256)":"51c6590a","applyFunding(uint256)":"c7503db3","closePosition(uint256)":"a126d601","fundingRatePerHour()":"73b2eaef","getUnrealizedPnL(uint256)":"0f259013","getVaultOpenPositions(address)":"f17014d6","isLiquidatable(uint256)":"211a4443","liquidate(uint256)":"415f1240","nextPositionId()":"899346c7","openPosition(address,bytes32,bool,uint256,uint8)":"1086160d","oracle()":"7dc0d1d0","owner()":"8da5cb5b","posManager()":"4e7773f4","positions(uint256)":"99fbab88","renounceOwnership()":"715018a6","setFundingRate(uint256)":"dd0f8d2d","setVault(address)":"6817031b","transferOwnership(address)":"f2fde38b","usdc()":"3e413bee","vaultContract()":"2274346b","vaultPositions(address,uint256)":"b6a365b3"},"id":42}