{"abi":[{"type":"constructor","inputs":[{"name":"_usdc","type":"address","internalType":"contract IERC20"},{"name":"_perpEngine","type":"address","internalType":"address"},{"name":"_strategyRegistry","type":"address","internalType":"address"},{"name":"_hermesAgent","type":"address","internalType":"address"},{"name":"_initialStrategy","type":"uint8","internalType":"enum ArcanaStrategy.StrategyType"}],"stateMutability":"nonpayable"},{"type":"function","name":"WITHDRAWAL_DELAY","inputs":[],"outputs":[{"name":"","type":"uint256","internalType":"uint256"}],"stateMutability":"view"},{"type":"function","name":"activeStrategy","inputs":[],"outputs":[{"name":"","type":"uint8","internalType":"enum ArcanaStrategy.StrategyType"}],"stateMutability":"view"},{"type":"function","name":"allowance","inputs":[{"name":"owner","type":"address","internalType":"address"},{"name":"spender","type":"address","internalType":"address"}],"outputs":[{"name":"","type":"uint256","internalType":"uint256"}],"stateMutability":"view"},{"type":"function","name":"approve","inputs":[{"name":"spender","type":"address","internalType":"address"},{"name":"value","type":"uint256","internalType":"uint256"}],"outputs":[{"name":"","type":"bool","internalType":"bool"}],"stateMutability":"nonpayable"},{"type":"function","name":"approveEngine","inputs":[{"name":"amount","type":"uint256","internalType":"uint256"}],"outputs":[],"stateMutability":"nonpayable"},{"type":"function","name":"asset","inputs":[],"outputs":[{"name":"","type":"address","internalType":"address"}],"stateMutability":"view"},{"type":"function","name":"balanceOf","inputs":[{"name":"account","type":"address","internalType":"address"}],"outputs":[{"name":"","type":"uint256","internalType":"uint256"}],"stateMutability":"view"},{"type":"function","name":"completeWithdraw","inputs":[],"outputs":[],"stateMutability":"nonpayable"},{"type":"function","name":"convertToAssets","inputs":[{"name":"shares","type":"uint256","internalType":"uint256"}],"outputs":[{"name":"","type":"uint256","internalType":"uint256"}],"stateMutability":"view"},{"type":"function","name":"convertToShares","inputs":[{"name":"assets","type":"uint256","internalType":"uint256"}],"outputs":[{"name":"","type":"uint256","internalType":"uint256"}],"stateMutability":"view"},{"type":"function","name":"decimals","inputs":[],"outputs":[{"name":"","type":"uint8","internalType":"uint8"}],"stateMutability":"view"},{"type":"function","name":"deposit","inputs":[{"name":"assets","type":"uint256","internalType":"uint256"},{"name":"receiver","type":"address","internalType":"address"}],"outputs":[{"name":"","type":"uint256","internalType":"uint256"}],"stateMutability":"nonpayable"},{"type":"function","name":"executeClose","inputs":[{"name":"positionId","type":"uint256","internalType":"uint256"}],"outputs":[{"name":"pnl","type":"int256","internalType":"int256"}],"stateMutability":"nonpayable"},{"type":"function","name":"executeOpen","inputs":[{"name":"market","type":"bytes32","internalType":"bytes32"},{"name":"isLong","type":"bool","internalType":"bool"},{"name":"collateralAmount","type":"uint256","internalType":"uint256"},{"name":"leverage","type":"uint8","internalType":"uint8"}],"outputs":[{"name":"positionId","type":"uint256","internalType":"uint256"}],"stateMutability":"nonpayable"},{"type":"function","name":"hermesAgent","inputs":[],"outputs":[{"name":"","type":"address","internalType":"address"}],"stateMutability":"view"},{"type":"function","name":"isPrivate","inputs":[],"outputs":[{"name":"","type":"bool","internalType":"bool"}],"stateMutability":"view"},{"type":"function","name":"lastHermesCycle","inputs":[],"outputs":[{"name":"","type":"uint256","internalType":"uint256"}],"stateMutability":"view"},{"type":"function","name":"logDecision","inputs":[{"name":"reasoning","type":"string","internalType":"string"}],"outputs":[],"stateMutability":"nonpayable"},{"type":"function","name":"maxDeposit","inputs":[{"name":"","type":"address","internalType":"address"}],"outputs":[{"name":"","type":"uint256","internalType":"uint256"}],"stateMutability":"view"},{"type":"function","name":"maxMint","inputs":[{"name":"","type":"address","internalType":"address"}],"outputs":[{"name":"","type":"uint256","internalType":"uint256"}],"stateMutability":"view"},{"type":"function","name":"maxRedeem","inputs":[{"name":"owner","type":"address","internalType":"address"}],"outputs":[{"name":"","type":"uint256","internalType":"uint256"}],"stateMutability":"view"},{"type":"function","name":"maxWithdraw","inputs":[{"name":"owner","type":"address","internalType":"address"}],"outputs":[{"name":"","type":"uint256","internalType":"uint256"}],"stateMutability":"view"},{"type":"function","name":"mint","inputs":[{"name":"shares","type":"uint256","internalType":"uint256"},{"name":"receiver","type":"address","internalType":"address"}],"outputs":[{"name":"","type":"uint256","internalType":"uint256"}],"stateMutability":"nonpayable"},{"type":"function","name":"name","inputs":[],"outputs":[{"name":"","type":"string","internalType":"string"}],"stateMutability":"view"},{"type":"function","name":"owner","inputs":[],"outputs":[{"name":"","type":"address","internalType":"address"}],"stateMutability":"view"},{"type":"function","name":"pendingWithdrawShares","inputs":[{"name":"","type":"address","internalType":"address"}],"outputs":[{"name":"","type":"uint256","internalType":"uint256"}],"stateMutability":"view"},{"type":"function","name":"perpEngine","inputs":[],"outputs":[{"name":"","type":"address","internalType":"contract ArcanaPerpEngine"}],"stateMutability":"view"},{"type":"function","name":"previewDeposit","inputs":[{"name":"assets","type":"uint256","internalType":"uint256"}],"outputs":[{"name":"","type":"uint256","internalType":"uint256"}],"stateMutability":"view"},{"type":"function","name":"previewMint","inputs":[{"name":"shares","type":"uint256","internalType":"uint256"}],"outputs":[{"name":"","type":"uint256","internalType":"uint256"}],"stateMutability":"view"},{"type":"function","name":"previewRedeem","inputs":[{"name":"shares","type":"uint256","internalType":"uint256"}],"outputs":[{"name":"","type":"uint256","internalType":"uint256"}],"stateMutability":"view"},{"type":"function","name":"previewWithdraw","inputs":[{"name":"assets","type":"uint256","internalType":"uint256"}],"outputs":[{"name":"","type":"uint256","internalType":"uint256"}],"stateMutability":"view"},{"type":"function","name":"redeem","inputs":[{"name":"shares","type":"uint256","internalType":"uint256"},{"name":"receiver","type":"address","internalType":"address"},{"name":"owner","type":"address","internalType":"address"}],"outputs":[{"name":"","type":"uint256","internalType":"uint256"}],"stateMutability":"nonpayable"},{"type":"function","name":"renounceOwnership","inputs":[],"outputs":[],"stateMutability":"nonpayable"},{"type":"function","name":"requestWithdraw","inputs":[{"name":"shares","type":"uint256","internalType":"uint256"}],"outputs":[],"stateMutability":"nonpayable"},{"type":"function","name":"setHermesAgent","inputs":[{"name":"agent","type":"address","internalType":"address"}],"outputs":[],"stateMutability":"nonpayable"},{"type":"function","name":"setPrivate","inputs":[{"name":"_isPrivate","type":"bool","internalType":"bool"}],"outputs":[],"stateMutability":"nonpayable"},{"type":"function","name":"setStrategy","inputs":[{"name":"newStrategy","type":"uint8","internalType":"enum ArcanaStrategy.StrategyType"}],"outputs":[],"stateMutability":"nonpayable"},{"type":"function","name":"strategyRegistry","inputs":[],"outputs":[{"name":"","type":"address","internalType":"contract ArcanaStrategy"}],"stateMutability":"view"},{"type":"function","name":"symbol","inputs":[],"outputs":[{"name":"","type":"string","internalType":"string"}],"stateMutability":"view"},{"type":"function","name":"totalAssets","inputs":[],"outputs":[{"name":"","type":"uint256","internalType":"uint256"}],"stateMutability":"view"},{"type":"function","name":"totalSupply","inputs":[],"outputs":[{"name":"","type":"uint256","internalType":"uint256"}],"stateMutability":"view"},{"type":"function","name":"totalTradesExecuted","inputs":[],"outputs":[{"name":"","type":"uint256","internalType":"uint256"}],"stateMutability":"view"},{"type":"function","name":"transfer","inputs":[{"name":"to","type":"address","internalType":"address"},{"name":"value","type":"uint256","internalType":"uint256"}],"outputs":[{"name":"","type":"bool","internalType":"bool"}],"stateMutability":"nonpayable"},{"type":"function","name":"transferFrom","inputs":[{"name":"from","type":"address","internalType":"address"},{"name":"to","type":"address","internalType":"address"},{"name":"value","type":"uint256","internalType":"uint256"}],"outputs":[{"name":"","type":"bool","internalType":"bool"}],"stateMutability":"nonpayable"},{"type":"function","name":"transferOwnership","inputs":[{"name":"newOwner","type":"address","internalType":"address"}],"outputs":[],"stateMutability":"nonpayable"},{"type":"function","name":"withdraw","inputs":[{"name":"assets","type":"uint256","internalType":"uint256"},{"name":"receiver","type":"address","internalType":"address"},{"name":"owner","type":"address","internalType":"address"}],"outputs":[{"name":"","type":"uint256","internalType":"uint256"}],"stateMutability":"nonpayable"},{"type":"function","name":"withdrawalRequestedAt","inputs":[{"name":"","type":"address","internalType":"address"}],"outputs":[{"name":"","type":"uint256","internalType":"uint256"}],"stateMutability":"view"},{"type":"event","name":"Approval","inputs":[{"name":"owner","type":"address","indexed":true,"internalType":"address"},{"name":"spender","type":"address","indexed":true,"internalType":"address"},{"name":"value","type":"uint256","indexed":false,"internalType":"uint256"}],"anonymous":false},{"type":"event","name":"Deposit","inputs":[{"name":"sender","type":"address","indexed":true,"internalType":"address"},{"name":"owner","type":"address","indexed":true,"internalType":"address"},{"name":"assets","type":"uint256","indexed":false,"internalType":"uint256"},{"name":"shares","type":"uint256","indexed":false,"internalType":"uint256"}],"anonymous":false},{"type":"event","name":"HermesAgentUpdated","inputs":[{"name":"oldAgent","type":"address","indexed":false,"internalType":"address"},{"name":"newAgent","type":"address","indexed":false,"internalType":"address"}],"anonymous":false},{"type":"event","name":"HermesDecisionLogged","inputs":[{"name":"reasoning","type":"string","indexed":false,"internalType":"string"},{"name":"timestamp","type":"uint256","indexed":false,"internalType":"uint256"}],"anonymous":false},{"type":"event","name":"OwnershipTransferred","inputs":[{"name":"previousOwner","type":"address","indexed":true,"internalType":"address"},{"name":"newOwner","type":"address","indexed":true,"internalType":"address"}],"anonymous":false},{"type":"event","name":"PositionExecuted","inputs":[{"name":"market","type":"bytes32","indexed":false,"internalType":"bytes32"},{"name":"isLong","type":"bool","indexed":false,"internalType":"bool"},{"name":"positionId","type":"uint256","indexed":false,"internalType":"uint256"},{"name":"leverage","type":"uint8","indexed":false,"internalType":"uint8"}],"anonymous":false},{"type":"event","name":"PrivacyToggled","inputs":[{"name":"isPrivate","type":"bool","indexed":false,"internalType":"bool"}],"anonymous":false},{"type":"event","name":"StrategyChanged","inputs":[{"name":"user","type":"address","indexed":true,"internalType":"address"},{"name":"from","type":"uint8","indexed":false,"internalType":"enum ArcanaStrategy.StrategyType"},{"name":"to","type":"uint8","indexed":false,"internalType":"enum ArcanaStrategy.StrategyType"}],"anonymous":false},{"type":"event","name":"Transfer","inputs":[{"name":"from","type":"address","indexed":true,"internalType":"address"},{"name":"to","type":"address","indexed":true,"internalType":"address"},{"name":"value","type":"uint256","indexed":false,"internalType":"uint256"}],"anonymous":false},{"type":"event","name":"Withdraw","inputs":[{"name":"sender","type":"address","indexed":true,"internalType":"address"},{"name":"receiver","type":"address","indexed":true,"internalType":"address"},{"name":"owner","type":"address","indexed":true,"internalType":"address"},{"name":"assets","type":"uint256","indexed":false,"internalType":"uint256"},{"name":"shares","type":"uint256","indexed":false,"internalType":"uint256"}],"anonymous":false},{"type":"event","name":"WithdrawalCompleted","inputs":[{"name":"user","type":"address","indexed":true,"internalType":"address"},{"name":"assets","type":"uint256","indexed":false,"internalType":"uint256"}],"anonymous":false},{"type":"event","name":"WithdrawalRequested","inputs":[{"name":"user","type":"address","indexed":true,"internalType":"address"},{"name":"shares","type":"uint256","indexed":false,"internalType":"uint256"},{"name":"availableAt","type":"uint256","indexed":false,"internalType":"uint256"}],"anonymous":false},{"type":"error","name":"ERC20InsufficientAllowance","inputs":[{"name":"spender","type":"address","internalType":"address"},{"name":"allowance","type":"uint256","internalType":"uint256"},{"name":"needed","type":"uint256","internalType":"uint256"}]},{"type":"error","name":"ERC20InsufficientBalance","inputs":[{"name":"sender","type":"address","internalType":"address"},{"name":"balance","type":"uint256","internalType":"uint256"},{"name":"needed","type":"uint256","internalType":"uint256"}]},{"type":"error","name":"ERC20InvalidApprover","inputs":[{"name":"approver","type":"address","internalType":"address"}]},{"type":"error","name":"ERC20InvalidReceiver","inputs":[{"name":"receiver","type":"address","internalType":"address"}]},{"type":"error","name":"ERC20InvalidSender","inputs":[{"name":"sender","type":"address","internalType":"address"}]},{"type":"error","name":"ERC20InvalidSpender","inputs":[{"name":"spender","type":"address","internalType":"address"}]},{"type":"error","name":"ERC4626ExceededMaxDeposit","inputs":[{"name":"receiver","type":"address","internalType":"address"},{"name":"assets","type":"uint256","internalType":"uint256"},{"name":"max","type":"uint256","internalType":"uint256"}]},{"type":"error","name":"ERC4626ExceededMaxMint","inputs":[{"name":"receiver","type":"address","internalType":"address"},{"name":"shares","type":"uint256","internalType":"uint256"},{"name":"max","type":"uint256","internalType":"uint256"}]},{"type":"error","name":"ERC4626ExceededMaxRedeem","inputs":[{"name":"owner","type":"address","internalType":"address"},{"name":"shares","type":"uint256","internalType":"uint256"},{"name":"max","type":"uint256","internalType":"uint256"}]},{"type":"error","name":"ERC4626ExceededMaxWithdraw","inputs":[{"name":"owner","type":"address","internalType":"address"},{"name":"assets","type":"uint256","internalType":"uint256"},{"name":"max","type":"uint256","internalType":"uint256"}]},{"type":"error","name":"OwnableInvalidOwner","inputs":[{"name":"owner","type":"address","internalType":"address"}]},{"type":"error","name":"OwnableUnauthorizedAccount","inputs":[{"name":"account","type":"address","internalType":"address"}]},{"type":"error","name":"ReentrancyGuardReentrantCall","inputs":[]},{"type":"error","name":"SafeERC20FailedOperation","inputs":[{"name":"token","type":"address","internalType":"address"}]}],"bytecode":{"object":"0x60c060405234801562000010575f80fd5b5060405162002dd738038062002dd78339810160408190526200003391620003d5565b338560405180604001604052806012815260200171415243414e41205661756c7420536861726560701b81525060405180604001604052806005815260200164615553444360d81b81525081600390816200008f9190620004f1565b5060046200009e8282620004f1565b5050505f80620000b483620002b260201b60201c565b9150915081620000c6576012620000c8565b805b60ff1660a05250506001600160a01b0390811660805281166200010557604051631e4fbdf760e01b81525f60048201526024015b60405180910390fd5b62000110816200034b565b5060017f9b779b17422d0df92223018b32b4d1fa46e071723d6817e2486d003becc55f00556001600160a01b0384166200018d5760405162461bcd60e51b815260206004820152601360248201527f496e76616c6964207065727020656e67696e65000000000000000000000000006044820152606401620000fc565b6001600160a01b038316620001e55760405162461bcd60e51b815260206004820152601960248201527f496e76616c6964207374726174656779207265676973747279000000000000006044820152606401620000fc565b6001600160a01b0382166200023d5760405162461bcd60e51b815260206004820152601460248201527f496e76616c6964206865726d6573206167656e740000000000000000000000006044820152606401620000fc565b600780546001600160a01b038087166001600160a01b031992831617909255600880548684169083161790556006805492851691831682178155839290916001600160a81b031990911617600160a01b836002811115620002a257620002a2620005bd565b02179055505050505050620005d1565b5f8080620002bf60405190565b6040805160048152602481019091526020810180516001600160e01b0390811663313ce56760e01b179091529192505f91829162000301918891906200039c16565b5090925090506200031183604052565b81801562000320575060203d10155b80156200032e575060ff8111155b6200033b575f806200033f565b6001815b94509450505050915091565b600580546001600160a01b038381166001600160a01b0319831681179093556040519116919082907f8be0079c531659141344cd1fd0a4f28419497f9722a3daafe3b4186f6b6457e0905f90a35050565b5f805f60405f855160208701885afa92505f51915060205190509250925092565b6001600160a01b0381168114620003d2575f80fd5b50565b5f805f805f60a08688031215620003ea575f80fd5b8551620003f781620003bd565b60208701519095506200040a81620003bd565b60408701519094506200041d81620003bd565b60608701519093506200043081620003bd565b60808701519092506003811062000445575f80fd5b809150509295509295909350565b634e487b7160e01b5f52604160045260245ffd5b600181811c908216806200047c57607f821691505b6020821081036200049b57634e487b7160e01b5f52602260045260245ffd5b50919050565b601f821115620004ec57805f5260205f20601f840160051c81016020851015620004c85750805b601f840160051c820191505b81811015620004e9575f8155600101620004d4565b50505b505050565b81516001600160401b038111156200050d576200050d62000453565b62000525816200051e845462000467565b84620004a1565b602080601f8311600181146200055b575f8415620005435750858301515b5f19600386901b1c1916600185901b178555620005b5565b5f85815260208120601f198616915b828110156200058b578886015182559484019460019091019084016200056a565b5085821015620005a957878501515f19600388901b60f8161c191681555b505060018460011b0185555b505050505050565b634e487b7160e01b5f52602160045260245ffd5b60805160a0516127b3620006245f395f610a7501525f818161037b0152818161062f01528181610ec501528181610fb10152818161139e0152818161156f01528181611c760152611dc701526127b35ff3fe608060405234801561000f575f80fd5b506004361061028c575f3560e01c80638da5cb5b11610161578063cd3c4255116100ca578063dd62ed3e11610084578063dd62ed3e146105b8578063e283672d146105f0578063ef8b30f71461052f578063f2fde38b14610603578063f756fa2114610616578063faff660e1461061e575f80fd5b8063cd3c425514610542578063ce96cb7714610563578063cf841a9414610576578063d080bf2714610589578063d2a037ab1461059c578063d905777e146105a5575f80fd5b8063b380df981161011b578063b380df98146104e3578063b3d7f6b9146104f6578063b460af9414610509578063ba0876521461051c578063c63d75b6146103bc578063c6e6f5921461052f575f80fd5b80638da5cb5b1461047e57806394bf804d1461048f578063955add08146104a257806395d89b41146104b5578063a9059cbb146104bd578063ae267abb146104d0575f80fd5b806338d52e0f116102035780635d082218116101bd5780635d082218146104025780636e553f651461041557806370a0823114610428578063715018a614610450578063745400c914610458578063865478821461046b575f80fd5b806338d52e0f146103795780633f6d1a44146103b3578063402d267d146103bc57806348ba4d2b146103d057806348dcb743146103e35780634cdad506146102c0575f80fd5b80630ebb172a116102545780630ebb172a146103095780630fd020391461031057806318160ddd1461032f57806323b872dd14610337578063268339dd1461034a578063313ce5671461035f575f80fd5b806301e1d1141461029057806306fdde03146102ab57806307a2d13a146102c0578063095ea7b3146102d35780630a28a477146102f6575b5f80fd5b61029861062b565b6040519081526020015b60405180910390f35b6102b36108c8565b6040516102a29190611f14565b6102986102ce366004611f46565b610958565b6102e66102e1366004611f71565b610969565b60405190151581526020016102a2565b610298610304366004611f46565b610980565b6102985f81565b61029861031e366004611f9b565b60096020525f908152604090205481565b600254610298565b6102e6610345366004611fb6565b61098c565b61035d610358366004611f9b565b6109b1565b005b610367610a6e565b60405160ff90911681526020016102a2565b7f00000000000000000000000000000000000000000000000000000000000000005b6040516001600160a01b0390911681526020016102a2565b610298600d5481565b6102986103ca366004611f9b565b505f1990565b60075461039b906001600160a01b031681565b6102986103f1366004611f9b565b600a6020525f908152604090205481565b610298610410366004611f46565b610a9e565b610298610423366004611ff4565b610b42565b610298610436366004611f9b565b6001600160a01b03165f9081526020819052604090205490565b61035d610bc5565b61035d610466366004611f46565b610bd8565b61029861047936600461203d565b610cdd565b6005546001600160a01b031661039b565b61029861049d366004611ff4565b6110da565b61035d6104b0366004612084565b611145565b6102b3611221565b6102e66104cb366004611f71565b611230565b61035d6104de3660046120a2565b61123d565b60065461039b906001600160a01b031681565b610298610504366004611f46565b61129a565b61029861051736600461210e565b6112a6565b61029861052a36600461210e565b6112fc565b61029861053d366004611f46565b611349565b60065461055690600160a01b900460ff1681565b6040516102a29190612181565b610298610571366004611f9b565b611354565b61035d610584366004611f46565b611361565b60085461039b906001600160a01b031681565b610298600c5481565b6102986105b3366004611f9b565b6113c5565b6102986105c636600461218f565b6001600160a01b039182165f90815260016020908152604080832093909416825291909152205490565b61035d6105fe3660046121bb565b6113e2565b61035d610611366004611f9b565b611431565b61035d61146b565b600b546102e69060ff1681565b5f807f00000000000000000000000000000000000000000000000000000000000000006040516370a0823160e01b81523060048201526001600160a01b0391909116906370a0823190602401602060405180830381865afa158015610692573d5f803e3d5ffd5b505050506040513d601f19601f820116820180604052508101906106b691906121d6565b6007546040516378b80a6b60e11b81523060048201529192505f916001600160a01b039091169063f17014d6906024015f60405180830381865afa158015610700573d5f803e3d5ffd5b505050506040513d5f823e601f3d908101601f19168201604052610727919081019061225b565b90505f805b82518110156107d75760075483516001600160a01b0390911690630f2590139085908490811061075e5761075e6122fc565b60200260200101516040518263ffffffff1660e01b815260040161078491815260200190565b602060405180830381865afa15801561079f573d5f803e3d5ffd5b505050506040513d601f19601f820116820180604052508101906107c391906121d6565b6107cd9083612324565b915060010161072c565b505f805b83518110156108965760075484515f916001600160a01b0316906399fbab889087908590811061080d5761080d6122fc565b60200260200101516040518263ffffffff1660e01b815260040161083391815260200190565b61016060405180830381865afa15801561084f573d5f803e3d5ffd5b505050506040513d601f19601f820116820180604052508101906108739190612361565b505050975050505050505050808361088b9190612404565b9250506001016107db565b505f826108a38387612324565b6108ad9190612324565b90505f81136108bc575f6108be565b805b9550505050505090565b6060600380546108d790612417565b80601f016020809104026020016040519081016040528092919081815260200182805461090390612417565b801561094e5780601f106109255761010080835404028352916020019161094e565b820191905f5260205f20905b81548152906001019060200180831161093157829003601f168201915b5050505050905090565b5f610963825f6115e3565b92915050565b5f3361097681858561161b565b5060019392505050565b5f61096382600161162d565b5f3361099985828561165c565b6109a48585856116c5565b60019150505b9392505050565b6109b9611722565b6001600160a01b038116610a0c5760405162461bcd60e51b8152602060048201526015602482015274496e76616c6964206167656e74206164647265737360581b60448201526064015b60405180910390fd5b600680546001600160a01b038381166001600160a01b031983168117909355604080519190921680825260208201939093527fa305ef4f7a354e57ba269b0fc6b27ea254000ed908359bc49e002d4ce04a48c091015b60405180910390a15050565b5f610a99817f000000000000000000000000000000000000000000000000000000000000000061244f565b905090565b6006545f906001600160a01b03163314610aca5760405162461bcd60e51b8152600401610a0390612468565b60075460405163a126d60160e01b8152600481018490526001600160a01b039091169063a126d601906024016020604051808303815f875af1158015610b12573d5f803e3d5ffd5b505050506040513d601f19601f82011682018060405250810190610b3691906121d6565b42600d5590505b919050565b5f610b4b61174f565b600b5460ff1615610ba3576005546001600160a01b03163314610ba35760405162461bcd60e51b815260206004820152601060248201526f5661756c74206973207072697661746560801b6044820152606401610a03565b610bad838361176a565b905061096360015f8051602061275e83398151915255565b610bcd611722565b610bd65f61178d565b565b5f8111610c155760405162461bcd60e51b815260206004820152600b60248201526a5a65726f2073686172657360a81b6044820152606401610a03565b335f90815260208190526040902054811115610c695760405162461bcd60e51b8152602060048201526013602482015272496e73756666696369656e742073686172657360681b6044820152606401610a03565b610c743330836116c5565b335f818152600a602090815260408083208590556009909152812042908190557f24b91f4f47caf44230a57777a9be744924e82bf666f2d5702faf97df35e60f9f918491610cc29190612404565b6040805192835260208301919091520160405180910390a250565b6006545f906001600160a01b03163314610d095760405162461bcd60e51b8152600401610a0390612468565b5f8311610d4a5760405162461bcd60e51b815260206004820152600f60248201526e16995c9bc818dbdb1b185d195c985b608a1b6044820152606401610a03565b60018260ff1610158015610d625750600a8260ff1611155b610d9d5760405162461bcd60e51b815260206004820152600c60248201526b426164206c6576657261676560a01b6044820152606401610a03565b600854600654604051600162f79fc360e01b031981525f926001600160a01b03169163ff08603d91610ddc91600160a01b900460ff1690600401612181565b5f60405180830381865afa158015610df6573d5f803e3d5ffd5b505050506040513d5f823e601f3d908101601f19168201604052610e1d91908101906124ee565b905080604001511580610e2d5750845b610e715760405162461bcd60e51b81526020600482015260156024820152745374726174656779206973206c6f6e672d6f6e6c7960581b6044820152606401610a03565b806020015160ff168360ff161115610ec25760405162461bcd60e51b815260206004820152601460248201527345786365656473206d6178206c6576657261676560601b6044820152606401610a03565b5f7f00000000000000000000000000000000000000000000000000000000000000006040516370a0823160e01b81523060048201526001600160a01b0391909116906370a0823190602401602060405180830381865afa158015610f28573d5f803e3d5ffd5b505050506040513d601f19601f82011682018060405250810190610f4c91906121d6565b905084811015610f9e5760405162461bcd60e51b815260206004820152601a60248201527f496e73756666696369656e74207661756c742062616c616e63650000000000006044820152606401610a03565b600754610fe1906001600160a01b0316867f00000000000000000000000000000000000000000000000000000000000000005b6001600160a01b031691906117de565b600754604051631086160d60e01b81523060048201526024810189905287151560448201526064810187905260ff861660848201526001600160a01b0390911690631086160d9060a4016020604051808303815f875af1158015611047573d5f803e3d5ffd5b505050506040513d601f19601f8201168201806040525081019061106b91906121d6565b600c80549194505f61107c836125a3565b909155505042600d5560408051888152871515602082015290810184905260ff851660608201527f623696581ad9b183259b4912b895c99215b7e0ebda5acd9d643ab995225fcdda9060800160405180910390a15050949350505050565b5f6110e361174f565b600b5460ff161561113b576005546001600160a01b0316331461113b5760405162461bcd60e51b815260206004820152601060248201526f5661756c74206973207072697661746560801b6044820152606401610a03565b610bad8383611858565b6005546001600160a01b031633148061116857506006546001600160a01b031633145b6111a55760405162461bcd60e51b815260206004820152600e60248201526d139bdd08185d5d1a1bdc9a5e995960921b6044820152606401610a03565b60068054600160a01b80820460ff16928492909160ff60a01b19909116908360028111156111d5576111d561214d565b0217905550336001600160a01b03167f7b849fd02893af4f5628708e216ebbf2d0f6929320cf7370d5cc08852202cf5a82846040516112159291906125bb565b60405180910390a25050565b6060600480546108d790612417565b5f336109768185856116c5565b6006546001600160a01b031633146112675760405162461bcd60e51b8152600401610a0390612468565b7f4d3c1b4ddbbf2019f541f766cd3a85545a8df43b4f11e6e5a36313bb8047e33c828242604051610a62939291906125d6565b5f6109638260016115e3565b5f806112b183611354565b9050808511156112da57828582604051633fa733bb60e21b8152600401610a039392919061260d565b5f6112e486610980565b90506112f33386868985611873565b95945050505050565b5f80611307836113c5565b90508085111561133057828582604051632e52afbb60e21b8152600401610a039392919061260d565b5f61133a86610958565b90506112f3338686848a611873565b5f610963825f61162d565b5f6109636102ce836113c5565b6006546001600160a01b0316331461138b5760405162461bcd60e51b8152600401610a0390612468565b6007546113c2906001600160a01b0316827f0000000000000000000000000000000000000000000000000000000000000000610fd1565b50565b6001600160a01b0381165f90815260208190526040812054610963565b6113ea611722565b600b805460ff19168215159081179091556040519081527f7545d47b3ce62da68159209ac975bb30231c26570763672301f21e0f858112079060200160405180910390a150565b611439611722565b6001600160a01b03811661146257604051631e4fbdf760e01b81525f6004820152602401610a03565b6113c28161178d565b61147361174f565b335f908152600a6020526040902054806114c75760405162461bcd60e51b8152602060048201526015602482015274139bc81c195b991a5b99c81dda5d1a191c985dd85b605a1b6044820152606401610a03565b335f908152600960205260408120546114e09190612404565b42101561152f5760405162461bcd60e51b815260206004820152601b60248201527f5769746864726177616c2064656c6179206e6f742070617373656400000000006044820152606401610a03565b335f908152600a602090815260408083208390556009909152812081905561155682610958565b90506115623083611912565b6115966001600160a01b037f000000000000000000000000000000000000000000000000000000000000000016338361194a565b60405181815233907f1a39b9c5044b9f0ff56c5951e30c1ebe24911353aafcceb9250e83a24fe158c49060200160405180910390a25050610bd660015f8051602061275e83398151915255565b5f6109aa6115ef61062b565b6115fa906001612404565b6116055f600a61270e565b6002546116129190612404565b85919085611957565b6116288383836001611999565b505050565b5f6109aa61163c82600a61270e565b6002546116499190612404565b61165161062b565b611612906001612404565b6001600160a01b038381165f908152600160209081526040808320938616835292905220545f198110156116bf57818110156116b157828183604051637dc7a0d960e11b8152600401610a039392919061260d565b6116bf84848484035f611999565b50505050565b6001600160a01b0383166116ee57604051634b637e8f60e11b81525f6004820152602401610a03565b6001600160a01b0382166117175760405163ec442f0560e01b81525f6004820152602401610a03565b611628838383611a6b565b6005546001600160a01b03163314610bd65760405163118cdaa760e01b8152336004820152602401610a03565b611757611b7e565b60025f8051602061275e83398151915255565b5f5f195f61177785611349565b905061178533858784611bad565b949350505050565b600580546001600160a01b038381166001600160a01b0319831681179093556040519116919082907f8be0079c531659141344cd1fd0a4f28419497f9722a3daafe3b4186f6b6457e0905f90a35050565b6117ea8383835f611c0f565b611628576117fb83835f6001611c0f565b61182357604051635274afe760e01b81526001600160a01b0384166004820152602401610a03565b6118308383836001611c0f565b61162857604051635274afe760e01b81526001600160a01b0384166004820152602401610a03565b5f5f195f6118658561129a565b905061178533858388611bad565b826001600160a01b0316856001600160a01b0316146118975761189783868361165c565b6118a18382611912565b6118ab8483611c71565b826001600160a01b0316846001600160a01b0316866001600160a01b03167ffbde797d201c681b91056529119e0b02407c7bb96a4a2c75c01fc9667232c8db8585604051611903929190918252602082015260400190565b60405180910390a45050505050565b6001600160a01b03821661193b57604051634b637e8f60e11b81525f6004820152602401610a03565b611946825f83611a6b565b5050565b6118308383836001611c9c565b5f61198461196483611ce6565b801561197f57505f848061197a5761197a61271c565b868809115b151590565b61198f868686611d12565b6112f39190612404565b6001600160a01b0384166119c25760405163e602df0560e01b81525f6004820152602401610a03565b6001600160a01b0383166119eb57604051634a1406b160e11b81525f6004820152602401610a03565b6001600160a01b038085165f90815260016020908152604080832093871683529290522082905580156116bf57826001600160a01b0316846001600160a01b03167f8c5be1e5ebec7d5bd14f71427d1e84f3dd0314c0f7b2291e5b200ac8c7c3b92584604051611a5d91815260200190565b60405180910390a350505050565b6001600160a01b038316611a95578060025f828254611a8a9190612404565b90915550611af29050565b6001600160a01b0383165f9081526020819052604090205481811015611ad45783818360405163391434e360e21b8152600401610a039392919061260d565b6001600160a01b0384165f9081526020819052604090209082900390555b6001600160a01b038216611b0e57600280548290039055611b2c565b6001600160a01b0382165f9081526020819052604090208054820190555b816001600160a01b0316836001600160a01b03167fddf252ad1be2c89b69c2b068fc378daa952ba7f163c4a11628f55a4df523b3ef83604051611b7191815260200190565b60405180910390a3505050565b5f8051602061275e83398151915254600203610bd657604051633ee5aeb560e01b815260040160405180910390fd5b611bb78483611dc2565b611bc18382611dee565b826001600160a01b0316846001600160a01b03167fdcbc1c05240f31ff3ad067ef1ee35ce4997762752e3a095284754544f4c709d78484604051611a5d929190918252602082015260400190565b60405163095ea7b360e01b5f8181526001600160a01b038616600452602485905291602083604481808b5af1925060015f51148316611c65578383151615611c59573d5f823e3d81fd5b5f873b113d1516831692505b60405250949350505050565b6119467f0000000000000000000000000000000000000000000000000000000000000000838361194a565b60405163a9059cbb60e01b5f8181526001600160a01b038616600452602485905291602083604481808b5af1925060015f51148316611c65578383151615611c59573d5f823e3d81fd5b5f6002826003811115611cfb57611cfb61214d565b611d059190612730565b60ff166001149050919050565b5f805f611d1f8686611e22565b91509150815f03611d4357838181611d3957611d3961271c565b04925050506109aa565b818411611d5a57611d5a6003851502601118611e3e565b5f848688095f868103871696879004966002600389028118808a02820302808a02820302808a02820302808a02820302808a02820302808a02909103029181900381900460010185841190960395909502919093039390930492909217029150509392505050565b6119467f0000000000000000000000000000000000000000000000000000000000000000833084611e4f565b6001600160a01b038216611e175760405163ec442f0560e01b81525f6004820152602401610a03565b6119465f8383611a6b565b5f805f1983850993909202808410938190039390930393915050565b634e487b715f52806020526024601cfd5b611e5d848484846001611e85565b6116bf57604051635274afe760e01b81526001600160a01b0385166004820152602401610a03565b6040516323b872dd60e01b5f8181526001600160a01b038781166004528616602452604485905291602083606481808c5af1925060015f51148316611ee1578383151615611ed5573d5f823e3d81fd5b5f883b113d1516831692505b604052505f60605295945050505050565b5f5b83811015611f0c578181015183820152602001611ef4565b50505f910152565b602081525f8251806020840152611f32816040850160208701611ef2565b601f01601f19169190910160400192915050565b5f60208284031215611f56575f80fd5b5035919050565b6001600160a01b03811681146113c2575f80fd5b5f8060408385031215611f82575f80fd5b8235611f8d81611f5d565b946020939093013593505050565b5f60208284031215611fab575f80fd5b81356109aa81611f5d565b5f805f60608486031215611fc8575f80fd5b8335611fd381611f5d565b92506020840135611fe381611f5d565b929592945050506040919091013590565b5f8060408385031215612005575f80fd5b82359150602083013561201781611f5d565b809150509250929050565b80151581146113c2575f80fd5b60ff811681146113c2575f80fd5b5f805f8060808587031215612050575f80fd5b84359350602085013561206281612022565b92506040850135915060608501356120798161202f565b939692955090935050565b5f60208284031215612094575f80fd5b8135600381106109aa575f80fd5b5f80602083850312156120b3575f80fd5b823567ffffffffffffffff808211156120ca575f80fd5b818501915085601f8301126120dd575f80fd5b8135818111156120eb575f80fd5b8660208285010111156120fc575f80fd5b60209290920196919550909350505050565b5f805f60608486031215612120575f80fd5b83359250602084013561213281611f5d565b9150604084013561214281611f5d565b809150509250925092565b634e487b7160e01b5f52602160045260245ffd5b6003811061217d57634e487b7160e01b5f52602160045260245ffd5b9052565b602081016109638284612161565b5f80604083850312156121a0575f80fd5b82356121ab81611f5d565b9150602083013561201781611f5d565b5f602082840312156121cb575f80fd5b81356109aa81612022565b5f602082840312156121e6575f80fd5b5051919050565b634e487b7160e01b5f52604160045260245ffd5b60405160e0810167ffffffffffffffff81118282101715612224576122246121ed565b60405290565b604051601f8201601f1916810167ffffffffffffffff81118282101715612253576122536121ed565b604052919050565b5f602080838503121561226c575f80fd5b825167ffffffffffffffff80821115612283575f80fd5b818501915085601f830112612296575f80fd5b8151818111156122a8576122a86121ed565b8060051b91506122b984830161222a565b81815291830184019184810190888411156122d2575f80fd5b938501935b838510156122f0578451825293850193908501906122d7565b98975050505050505050565b634e487b7160e01b5f52603260045260245ffd5b634e487b7160e01b5f52601160045260245ffd5b8082018281125f83128015821682158216171561234357612343612310565b505092915050565b8051610b3d81612022565b8051610b3d8161202f565b5f805f805f805f805f805f6101608c8e03121561237c575f80fd5b8b519a5060208c015161238e81611f5d565b60408d015160608e0151919b5099506123a681612022565b8098505060808c0151965060a08c0151955060c08c01516123c68161202f565b8095505060e08c015193506101008c015192506101208c01516123e881612022565b809250506101408c015190509295989b509295989b9093969950565b8082018082111561096357610963612310565b600181811c9082168061242b57607f821691505b60208210810361244957634e487b7160e01b5f52602260045260245ffd5b50919050565b60ff818116838216019081111561096357610963612310565b6020808252600b908201526a4f6e6c79204845524d455360a81b604082015260600190565b5f82601f83011261249c575f80fd5b815167ffffffffffffffff8111156124b6576124b66121ed565b6124c9601f8201601f191660200161222a565b8181528460208386010111156124dd575f80fd5b611785826020830160208701611ef2565b5f602082840312156124fe575f80fd5b815167ffffffffffffffff80821115612515575f80fd5b9083019060e08286031215612528575f80fd5b612530612201565b82518281111561253e575f80fd5b61254a8782860161248d565b82525061255960208401612356565b602082015261256a6040840161234b565b6040820152606083015160608201526080830151608082015260a083015160a082015260c083015160c082015280935050505092915050565b5f600182016125b4576125b4612310565b5060010190565b604081016125c98285612161565b6109aa6020830184612161565b60408152826040820152828460608301375f606084830101525f6060601f19601f8601168301019050826020830152949350505050565b6001600160a01b039390931683526020830191909152604082015260600190565b600181815b8085111561266857815f190482111561264e5761264e612310565b8085161561265b57918102915b93841c9390800290612633565b509250929050565b5f8261267e57506001610963565b8161268a57505f610963565b81600181146126a057600281146126aa576126c6565b6001915050610963565b60ff8411156126bb576126bb612310565b50506001821b610963565b5060208310610133831016604e8410600b84101617156126e9575081810a610963565b6126f3838361262e565b805f190482111561270657612706612310565b029392505050565b5f6109aa60ff841683612670565b634e487b7160e01b5f52601260045260245ffd5b5f60ff83168061274e57634e487b7160e01b5f52601260045260245ffd5b8060ff8416069150509291505056fe9b779b17422d0df92223018b32b4d1fa46e071723d6817e2486d003becc55f00a2646970667358221220dd3b24294a1aebd82cabfcd04db8b49a7c31716f281ed00ffff7cb406173929564736f6c63430008180033","linkReferences":{}},"methodIdentifiers":{"WITHDRAWAL_DELAY()":"0ebb172a","activeStrategy()":"cd3c4255","allowance(address,address)":"dd62ed3e","approve(address,uint256)":"095ea7b3","approveEngine(uint256)":"cf841a94","asset()":"38d52e0f","balanceOf(address)":"70a08231","completeWithdraw()":"f756fa21","convertToAssets(uint256)":"07a2d13a","convertToShares(uint256)":"c6e6f592","decimals()":"313ce567","deposit(uint256,address)":"6e553f65","executeClose(uint256)":"5d082218","executeOpen(bytes32,bool,uint256,uint8)":"86547882","hermesAgent()":"b380df98","isPrivate()":"faff660e","lastHermesCycle()":"3f6d1a44","logDecision(string)":"ae267abb","maxDeposit(address)":"402d267d","maxMint(address)":"c63d75b6","maxRedeem(address)":"d905777e","maxWithdraw(address)":"ce96cb77","mint(uint256,address)":"94bf804d","name()":"06fdde03","owner()":"8da5cb5b","pendingWithdrawShares(address)":"48dcb743","perpEngine()":"48ba4d2b","previewDeposit(uint256)":"ef8b30f7","previewMint(uint256)":"b3d7f6b9","previewRedeem(uint256)":"4cdad506","previewWithdraw(uint256)":"0a28a477","redeem(uint256,address,address)":"ba087652","renounceOwnership()":"715018a6","requestWithdraw(uint256)":"745400c9","setHermesAgent(address)":"268339dd","setPrivate(bool)":"e283672d","setStrategy(uint8)":"955add08","strategyRegistry()":"d080bf27","symbol()":"95d89b41","totalAssets()":"01e1d114","totalSupply()":"18160ddd","totalTradesExecuted()":"d2a037ab","transfer(address,uint256)":"a9059cbb","transferFrom(address,address,uint256)":"23b872dd","transferOwnership(address)":"f2fde38b","withdraw(uint256,address,address)":"b460af94","withdrawalRequestedAt(address)":"0fd02039"},"id":45}